{
  "address": "0x5BAFB3ac661Be585ee559b518b470729A1C9a189",
  "abi": [
    {
      "inputs": [
        {
          "internalType": "address",
          "name": "_owner",
          "type": "address"
        }
      ],
      "stateMutability": "nonpayable",
      "type": "constructor"
    },
    {
      "anonymous": false,
      "inputs": [
        {
          "indexed": true,
          "internalType": "address",
          "name": "greetingSetter",
          "type": "address"
        },
        {
          "indexed": false,
          "internalType": "string",
          "name": "newGreeting",
          "type": "string"
        },
        {
          "indexed": false,
          "internalType": "bool",
          "name": "premium",
          "type": "bool"
        },
        {
          "indexed": false,
          "internalType": "uint256",
          "name": "value",
          "type": "uint256"
        }
      ],
      "name": "GreetingChange",
      "type": "event"
    },
    {
      "anonymous": false,
      "inputs": [
        {
          "indexed": false,
          "internalType": "address",
          "name": "_from",
          "type": "address"
        },
        {
          "indexed": false,
          "internalType": "address",
          "name": "_to",
          "type": "address"
        },
        {
          "indexed": false,
          "internalType": "string",
          "name": "message",
          "type": "string"
        }
      ],
      "name": "SendMessage",
      "type": "event"
    },
    {
      "inputs": [],
      "name": "greeting",
      "outputs": [
        {
          "internalType": "string",
          "name": "",
          "type": "string"
        }
      ],
      "stateMutability": "view",
      "type": "function"
    },
    {
      "inputs": [],
      "name": "owner",
      "outputs": [
        {
          "internalType": "address",
          "name": "",
          "type": "address"
        }
      ],
      "stateMutability": "view",
      "type": "function"
    },
    {
      "inputs": [],
      "name": "premium",
      "outputs": [
        {
          "internalType": "bool",
          "name": "",
          "type": "bool"
        }
      ],
      "stateMutability": "view",
      "type": "function"
    },
    {
      "inputs": [
        {
          "internalType": "address",
          "name": "_to",
          "type": "address"
        },
        {
          "internalType": "string",
          "name": "message",
          "type": "string"
        }
      ],
      "name": "sendMessage",
      "outputs": [],
      "stateMutability": "nonpayable",
      "type": "function"
    },
    {
      "inputs": [
        {
          "internalType": "string",
          "name": "_newGreeting",
          "type": "string"
        }
      ],
      "name": "setGreeting",
      "outputs": [],
      "stateMutability": "payable",
      "type": "function"
    },
    {
      "inputs": [],
      "name": "totalCounter",
      "outputs": [
        {
          "internalType": "uint256",
          "name": "",
          "type": "uint256"
        }
      ],
      "stateMutability": "view",
      "type": "function"
    },
    {
      "inputs": [
        {
          "internalType": "address",
          "name": "",
          "type": "address"
        }
      ],
      "name": "userGreetingCounter",
      "outputs": [
        {
          "internalType": "uint256",
          "name": "",
          "type": "uint256"
        }
      ],
      "stateMutability": "view",
      "type": "function"
    },
    {
      "inputs": [],
      "name": "withdraw",
      "outputs": [],
      "stateMutability": "nonpayable",
      "type": "function"
    },
    {
      "stateMutability": "payable",
      "type": "receive"
    }
  ],
  "transactionHash": "0x36141cf057478462b0525cc39b7637cbab5f32ef52f5396afcec2e936dd75cfc",
  "args": [
    "0xE4a14eEBf7F90E93784d6555BFBaC545346DF394"
  ],
  "numDeployments": 1,
  "solcInputHash": "9b71578415b6e11d337abda4b3921bf6",
  "bytecode": "0x60e0604052601c60a09081527f4275696c64696e6720556e73746f707061626c6520417070732121210000000060c05260009061003c9082610129565b506001805460ff19169055600060025534801561005857600080fd5b5060405162000b9638038062000b96833981016040819052610079916101e8565b6001600160a01b0316608052610218565b634e487b7160e01b600052604160045260246000fd5b600181811c908216806100b457607f821691505b6020821081036100d457634e487b7160e01b600052602260045260246000fd5b50919050565b601f82111561012457600081815260208120601f850160051c810160208610156101015750805b601f850160051c820191505b818110156101205782815560010161010d565b5050505b505050565b81516001600160401b038111156101425761014261008a565b6101568161015084546100a0565b846100da565b602080601f83116001811461018b57600084156101735750858301515b600019600386901b1c1916600185901b178555610120565b600085815260208120601f198616915b828110156101ba5788860151825594840194600190910190840161019b565b50858210156101d85787850151600019600388901b60f8161c191681555b5050505050600190811b01905550565b6000602082840312156101fa57600080fd5b81516001600160a01b038116811461021157600080fd5b9392505050565b608051610955620002416000396000818160b4015281816101ce015261023401526109556000f3fe60806040526004361061007f5760003560e01c8063cea49c3c1161004e578063cea49c3c1461012a578063de6f24bb14610157578063e0a73a9314610177578063ef690cc0146101a157600080fd5b80633ccfd60b1461008b5780638da5cb5b146100a257806397feba9d146100f3578063a41368621461011757600080fd5b3661008657005b600080fd5b34801561009757600080fd5b506100a06101c3565b005b3480156100ae57600080fd5b506100d67f000000000000000000000000000000000000000000000000000000000000000081565b6040516001600160a01b0390911681526020015b60405180910390f35b3480156100ff57600080fd5b5061010960025481565b6040519081526020016100ea565b6100a0610125366004610515565b6102ed565b34801561013657600080fd5b506101096101453660046105e2565b60036020526000908152604090205481565b34801561016357600080fd5b506100a0610172366004610604565b6103be565b34801561018357600080fd5b506001546101919060ff1681565b60405190151581526020016100ea565b3480156101ad57600080fd5b506101b6610400565b6040516100ea91906106cd565b336001600160a01b037f000000000000000000000000000000000000000000000000000000000000000016146102305760405162461bcd60e51b815260206004820152600d60248201526c2737ba103a34329027bbb732b960991b60448201526064015b60405180910390fd5b60007f00000000000000000000000000000000000000000000000000000000000000006001600160a01b03164760405160006040518083038185875af1925050503d806000811461029d576040519150601f19603f3d011682016040523d82523d6000602084013e6102a2565b606091505b50509050806102ea5760405162461bcd60e51b81526020600482015260146024820152732330b4b632b2103a379039b2b7321022ba3432b960611b6044820152606401610227565b50565b6103106040518060600160405280602181526020016108ff60219139823361048e565b600061031c8282610768565b506001600260008282546103309190610828565b9091555050336000908152600360205260408120805460019290610355908490610828565b90915550503415610371576001805460ff19168117905561037c565b6001805460ff191690555b60405133907f94cbd7e04dca26a7667654f6448b2ca0a40fec602118dc5fd8c82b9cf3c645ad906103b3908490348015159161084f565b60405180910390a250565b7f41e5ed7693f15bc2c858b03d462d15c58f9bd8ffa77fe0c7aec8905f63933d5b338484846040516103f39493929190610874565b60405180910390a1505050565b6000805461040d906106e0565b80601f0160208091040260200160405190810160405280929190818152602001828054610439906106e0565b80156104865780601f1061045b57610100808354040283529160200191610486565b820191906000526020600020905b81548152906001019060200180831161046957829003601f168201915b505050505081565b6104d58383836040516024016104a6939291906108c0565b60408051601f198184030181529190526020810180516001600160e01b03166395ed019560e01b1790526104da565b505050565b6102ea8160006a636f6e736f6c652e6c6f679050600080835160208501845afa505050565b634e487b7160e01b600052604160045260246000fd5b60006020828403121561052757600080fd5b813567ffffffffffffffff8082111561053f57600080fd5b818401915084601f83011261055357600080fd5b813581811115610565576105656104ff565b604051601f8201601f19908116603f0116810190838211818310171561058d5761058d6104ff565b816040528281528760208487010111156105a657600080fd5b826020860160208301376000928101602001929092525095945050505050565b80356001600160a01b03811681146105dd57600080fd5b919050565b6000602082840312156105f457600080fd5b6105fd826105c6565b9392505050565b60008060006040848603121561061957600080fd5b610622846105c6565b9250602084013567ffffffffffffffff8082111561063f57600080fd5b818601915086601f83011261065357600080fd5b81358181111561066257600080fd5b87602082850101111561067457600080fd5b6020830194508093505050509250925092565b6000815180845260005b818110156106ad57602081850181015186830182015201610691565b506000602082860101526020601f19601f83011685010191505092915050565b6020815260006105fd6020830184610687565b600181811c908216806106f457607f821691505b60208210810361071457634e487b7160e01b600052602260045260246000fd5b50919050565b601f8211156104d557600081815260208120601f850160051c810160208610156107415750805b601f850160051c820191505b818110156107605782815560010161074d565b505050505050565b815167ffffffffffffffff811115610782576107826104ff565b6107968161079084546106e0565b8461071a565b602080601f8311600181146107cb57600084156107b35750858301515b600019600386901b1c1916600185901b178555610760565b600085815260208120601f198616915b828110156107fa578886015182559484019460019091019084016107db565b50858210156108185787850151600019600388901b60f8161c191681555b5050505050600190811b01905550565b8082018082111561084957634e487b7160e01b600052601160045260246000fd5b92915050565b6060815260006108626060830186610687565b93151560208301525060400152919050565b6001600160a01b0385811682528416602082015260606040820181905281018290526000828460808401376000608084840101526080601f19601f850116830101905095945050505050565b6060815260006108d36060830186610687565b82810360208401526108e58186610687565b91505060018060a01b038316604083015294935050505056fe53657474696e67206e6577206772656574696e6720272573272066726f6d202573a2646970667358221220ff4262c8a52114c1a21afbe7f7798488b6b7cee2b21c2e277fadc9ce9a76daf164736f6c63430008110033",
  "devdoc": {
    "author": "BuidlGuidl",
    "kind": "dev",
    "methods": {
      "sendMessage(address,string)": {
        "params": {
          "_to": "- destination address",
          "message": "- message"
        }
      },
      "setGreeting(string)": {
        "params": {
          "_newGreeting": "(string memory) - new greeting to save on the contract"
        }
      }
    },
    "version": 1
  },
  "userdoc": {
    "kind": "user",
    "methods": {
      "setGreeting(string)": {
        "notice": "Function that allows anyone to change the state variable \"greeting\" of the contract and increase the counters"
      },
      "withdraw()": {
        "notice": "Function that allows the owner to withdraw all the Ether in the contract The function can only be called by the owner of the contract as defined by the isOwner modifier"
      }
    },
    "notice": "A smart contract that allows changing a state variable of the contract and tracking the changes It also allows the owner to withdraw the Ether in the contract",
    "version": 1
  },
  "storageLayout": {
    "storage": [
      {
        "astId": 8,
        "contract": "contracts/YourContract.sol:YourContract",
        "label": "greeting",
        "offset": 0,
        "slot": "0",
        "type": "t_string_storage"
      },
      {
        "astId": 11,
        "contract": "contracts/YourContract.sol:YourContract",
        "label": "premium",
        "offset": 0,
        "slot": "1",
        "type": "t_bool"
      },
      {
        "astId": 14,
        "contract": "contracts/YourContract.sol:YourContract",
        "label": "totalCounter",
        "offset": 0,
        "slot": "2",
        "type": "t_uint256"
      },
      {
        "astId": 18,
        "contract": "contracts/YourContract.sol:YourContract",
        "label": "userGreetingCounter",
        "offset": 0,
        "slot": "3",
        "type": "t_mapping(t_address,t_uint256)"
      }
    ],
    "types": {
      "t_address": {
        "encoding": "inplace",
        "label": "address",
        "numberOfBytes": "20"
      },
      "t_bool": {
        "encoding": "inplace",
        "label": "bool",
        "numberOfBytes": "1"
      },
      "t_mapping(t_address,t_uint256)": {
        "encoding": "mapping",
        "key": "t_address",
        "label": "mapping(address => uint256)",
        "numberOfBytes": "32",
        "value": "t_uint256"
      },
      "t_string_storage": {
        "encoding": "bytes",
        "label": "string",
        "numberOfBytes": "32"
      },
      "t_uint256": {
        "encoding": "inplace",
        "label": "uint256",
        "numberOfBytes": "32"
      }
    }
  }
}